{
	"contracts/3.sol": {
		"TestThrows": {
			"abi": [
				{
					"constant": true,
					"inputs": [],
					"name": "testAssert",
					"outputs": [],
					"payable": false,
					"stateMutability": "view",
					"type": "function"
				},
				{
					"constant": true,
					"inputs": [],
					"name": "testRequire",
					"outputs": [],
					"payable": false,
					"stateMutability": "view",
					"type": "function"
				},
				{
					"constant": true,
					"inputs": [],
					"name": "testThrow",
					"outputs": [],
					"payable": false,
					"stateMutability": "view",
					"type": "function"
				},
				{
					"constant": true,
					"inputs": [],
					"name": "testRevert",
					"outputs": [],
					"payable": false,
					"stateMutability": "view",
					"type": "function"
				}
			],
			"devdoc": {
				"methods": {}
			},
			"evm": {
				"assembly": "    /* \"contracts/3.sol\":1474:1794  contract TestThrows {\r... */\n  mstore(0x40, 0x80)\n  callvalue\n    /* \"--CODEGEN--\":8:17   */\n  dup1\n    /* \"--CODEGEN--\":5:7   */\n  iszero\n  tag_1\n  jumpi\n    /* \"--CODEGEN--\":30:31   */\n  0x0\n    /* \"--CODEGEN--\":27:28   */\n  dup1\n    /* \"--CODEGEN--\":20:32   */\n  revert\n    /* \"--CODEGEN--\":5:7   */\ntag_1:\n    /* \"contracts/3.sol\":1474:1794  contract TestThrows {\r... */\n  pop\n  dataSize(sub_0)\n  dup1\n  dataOffset(sub_0)\n  0x0\n  codecopy\n  0x0\n  return\nstop\n\nsub_0: assembly {\n        /* \"contracts/3.sol\":1474:1794  contract TestThrows {\r... */\n      mstore(0x40, 0x80)\n      jumpi(tag_1, lt(calldatasize, 0x4))\n      calldataload(0x0)\n      0x100000000000000000000000000000000000000000000000000000000\n      swap1\n      div\n      0xffffffff\n      and\n      dup1\n      0x2b813bc0\n      eq\n      tag_2\n      jumpi\n      dup1\n      0x357815c4\n      eq\n      tag_3\n      jumpi\n      dup1\n      0x50bff6bf\n      eq\n      tag_4\n      jumpi\n      dup1\n      0xa26388bb\n      eq\n      tag_5\n      jumpi\n    tag_1:\n      0x0\n      dup1\n      revert\n        /* \"contracts/3.sol\":1501:1568  function testAssert() public pure {\r... */\n    tag_2:\n      callvalue\n        /* \"--CODEGEN--\":8:17   */\n      dup1\n        /* \"--CODEGEN--\":5:7   */\n      iszero\n      tag_6\n      jumpi\n        /* \"--CODEGEN--\":30:31   */\n      0x0\n        /* \"--CODEGEN--\":27:28   */\n      dup1\n        /* \"--CODEGEN--\":20:32   */\n      revert\n        /* \"--CODEGEN--\":5:7   */\n    tag_6:\n        /* \"contracts/3.sol\":1501:1568  function testAssert() public pure {\r... */\n      pop\n      tag_7\n      jump(tag_8)\n    tag_7:\n      stop\n        /* \"contracts/3.sol\":1580:1649  function testRequire() public pure {\r... */\n    tag_3:\n      callvalue\n        /* \"--CODEGEN--\":8:17   */\n      dup1\n        /* \"--CODEGEN--\":5:7   */\n      iszero\n      tag_9\n      jumpi\n        /* \"--CODEGEN--\":30:31   */\n      0x0\n        /* \"--CODEGEN--\":27:28   */\n      dup1\n        /* \"--CODEGEN--\":20:32   */\n      revert\n        /* \"--CODEGEN--\":5:7   */\n    tag_9:\n        /* \"contracts/3.sol\":1580:1649  function testRequire() public pure {\r... */\n      pop\n      tag_10\n      jump(tag_11)\n    tag_10:\n      stop\n        /* \"contracts/3.sol\":1734:1791  function testThrow() public pure {\r... */\n    tag_4:\n      callvalue\n        /* \"--CODEGEN--\":8:17   */\n      dup1\n        /* \"--CODEGEN--\":5:7   */\n      iszero\n      tag_12\n      jumpi\n        /* \"--CODEGEN--\":30:31   */\n      0x0\n        /* \"--CODEGEN--\":27:28   */\n      dup1\n        /* \"--CODEGEN--\":20:32   */\n      revert\n        /* \"--CODEGEN--\":5:7   */\n    tag_12:\n        /* \"contracts/3.sol\":1734:1791  function testThrow() public pure {\r... */\n      pop\n      tag_13\n      jump(tag_14)\n    tag_13:\n      stop\n        /* \"contracts/3.sol\":1661:1722  function testRevert() public pure {\r... */\n    tag_5:\n      callvalue\n        /* \"--CODEGEN--\":8:17   */\n      dup1\n        /* \"--CODEGEN--\":5:7   */\n      iszero\n      tag_15\n      jumpi\n        /* \"--CODEGEN--\":30:31   */\n      0x0\n        /* \"--CODEGEN--\":27:28   */\n      dup1\n        /* \"--CODEGEN--\":20:32   */\n      revert\n        /* \"--CODEGEN--\":5:7   */\n    tag_15:\n        /* \"contracts/3.sol\":1661:1722  function testRevert() public pure {\r... */\n      pop\n      tag_16\n      jump(tag_17)\n    tag_16:\n      stop\n        /* \"contracts/3.sol\":1501:1568  function testAssert() public pure {\r... */\n    tag_8:\n        /* \"contracts/3.sol\":1558:1559  2 */\n      0x2\n        /* \"contracts/3.sol\":1553:1554  1 */\n      0x1\n        /* \"contracts/3.sol\":1553:1559  1 == 2 */\n      eq\n        /* \"contracts/3.sol\":1546:1560  assert(1 == 2) */\n      iszero\n      iszero\n      tag_19\n      jumpi\n      invalid\n    tag_19:\n        /* \"contracts/3.sol\":1501:1568  function testAssert() public pure {\r... */\n      jump\t// out\n        /* \"contracts/3.sol\":1580:1649  function testRequire() public pure {\r... */\n    tag_11:\n        /* \"contracts/3.sol\":1639:1640  1 */\n      0x1\n        /* \"contracts/3.sol\":1634:1635  2 */\n      0x2\n        /* \"contracts/3.sol\":1634:1640  2 == 1 */\n      eq\n        /* \"contracts/3.sol\":1626:1641  require(2 == 1) */\n      iszero\n      iszero\n      tag_21\n      jumpi\n      0x0\n      dup1\n      revert\n    tag_21:\n        /* \"contracts/3.sol\":1580:1649  function testRequire() public pure {\r... */\n      jump\t// out\n        /* \"contracts/3.sol\":1734:1791  function testThrow() public pure {\r... */\n    tag_14:\n        /* \"contracts/3.sol\":1778:1783  throw */\n      0x0\n      dup1\n      revert\n        /* \"contracts/3.sol\":1661:1722  function testRevert() public pure {\r... */\n    tag_17:\n        /* \"contracts/3.sol\":1706:1714  revert() */\n      0x0\n      dup1\n      revert\n\n    auxdata: 0xa165627a7a7230582074c327703426a690935c01d86d345360e8ff921ae95158b478640d059a0093950029\n}\n",
				"bytecode": {
					"linkReferences": {},
					"object": "608060405234801561001057600080fd5b50610107806100206000396000f300608060405260043610605d576000357c0100000000000000000000000000000000000000000000000000000000900463ffffffff1680632b813bc0146062578063357815c414607657806350bff6bf14608a578063a26388bb14609e575b600080fd5b348015606d57600080fd5b50607460b2565b005b348015608157600080fd5b50608860c0565b005b348015609557600080fd5b50609c60d1565b005b34801560a957600080fd5b5060b060d6565b005b6002600114151560be57fe5b565b6001600214151560cf57600080fd5b565b600080fd5b600080fd00a165627a7a7230582074c327703426a690935c01d86d345360e8ff921ae95158b478640d059a0093950029",
					"opcodes": "PUSH1 0x80 PUSH1 0x40 MSTORE CALLVALUE DUP1 ISZERO PUSH2 0x10 JUMPI PUSH1 0x0 DUP1 REVERT JUMPDEST POP PUSH2 0x107 DUP1 PUSH2 0x20 PUSH1 0x0 CODECOPY PUSH1 0x0 RETURN STOP PUSH1 0x80 PUSH1 0x40 MSTORE PUSH1 0x4 CALLDATASIZE LT PUSH1 0x5D JUMPI PUSH1 0x0 CALLDATALOAD PUSH29 0x100000000000000000000000000000000000000000000000000000000 SWAP1 DIV PUSH4 0xFFFFFFFF AND DUP1 PUSH4 0x2B813BC0 EQ PUSH1 0x62 JUMPI DUP1 PUSH4 0x357815C4 EQ PUSH1 0x76 JUMPI DUP1 PUSH4 0x50BFF6BF EQ PUSH1 0x8A JUMPI DUP1 PUSH4 0xA26388BB EQ PUSH1 0x9E JUMPI JUMPDEST PUSH1 0x0 DUP1 REVERT JUMPDEST CALLVALUE DUP1 ISZERO PUSH1 0x6D JUMPI PUSH1 0x0 DUP1 REVERT JUMPDEST POP PUSH1 0x74 PUSH1 0xB2 JUMP JUMPDEST STOP JUMPDEST CALLVALUE DUP1 ISZERO PUSH1 0x81 JUMPI PUSH1 0x0 DUP1 REVERT JUMPDEST POP PUSH1 0x88 PUSH1 0xC0 JUMP JUMPDEST STOP JUMPDEST CALLVALUE DUP1 ISZERO PUSH1 0x95 JUMPI PUSH1 0x0 DUP1 REVERT JUMPDEST POP PUSH1 0x9C PUSH1 0xD1 JUMP JUMPDEST STOP JUMPDEST CALLVALUE DUP1 ISZERO PUSH1 0xA9 JUMPI PUSH1 0x0 DUP1 REVERT JUMPDEST POP PUSH1 0xB0 PUSH1 0xD6 JUMP JUMPDEST STOP JUMPDEST PUSH1 0x2 PUSH1 0x1 EQ ISZERO ISZERO PUSH1 0xBE JUMPI INVALID JUMPDEST JUMP JUMPDEST PUSH1 0x1 PUSH1 0x2 EQ ISZERO ISZERO PUSH1 0xCF JUMPI PUSH1 0x0 DUP1 REVERT JUMPDEST JUMP JUMPDEST PUSH1 0x0 DUP1 REVERT JUMPDEST PUSH1 0x0 DUP1 REVERT STOP LOG1 PUSH6 0x627A7A723058 KECCAK256 PUSH21 0xC327703426A690935C01D86D345360E8FF921AE951 PC 0xb4 PUSH25 0x640D059A009395002900000000000000000000000000000000 "
				},
				"gasEstimates": {
					"creation": {
						"codeDepositCost": "52600",
						"executionCost": "105",
						"totalCost": "52705"
					},
					"external": {
						"testAssert()": "152",
						"testRequire()": "180",
						"testRevert()": "196",
						"testThrow()": "174"
					}
				},
				"methodIdentifiers": {
					"testAssert()": "2b813bc0",
					"testRequire()": "357815c4",
					"testRevert()": "a26388bb",
					"testThrow()": "50bff6bf"
				}
			},
			"userdoc": {
				"methods": {}
			}
		}
	}
}