{
	"contracts/6.sol": {
		"DataTypes": {
			"abi": [
				{
					"constant": true,
					"inputs": [],
					"name": "getBalance",
					"outputs": [
						{
							"name": "",
							"type": "uint256"
						}
					],
					"payable": false,
					"stateMutability": "view",
					"type": "function"
				},
				{
					"constant": false,
					"inputs": [],
					"name": "structFunc",
					"outputs": [],
					"payable": false,
					"stateMutability": "nonpayable",
					"type": "function"
				},
				{
					"constant": false,
					"inputs": [],
					"name": "arrFunc",
					"outputs": [],
					"payable": false,
					"stateMutability": "nonpayable",
					"type": "function"
				},
				{
					"constant": false,
					"inputs": [],
					"name": "assignAddress",
					"outputs": [],
					"payable": false,
					"stateMutability": "nonpayable",
					"type": "function"
				},
				{
					"payable": true,
					"stateMutability": "payable",
					"type": "fallback"
				}
			],
			"devdoc": {
				"methods": {}
			},
			"evm": {
				"assembly": "    /* \"contracts/6.sol\":27:1245  contract DataTypes {\r... */\n  mstore(0x40, 0x80)\n    /* \"contracts/6.sol\":73:78  false */\n  0x0\n    /* \"contracts/6.sol\":59:78  bool myBool = false */\n  dup1\n  exp(0x100, 0x0)\n  dup2\n  sload\n  dup2\n  0xff\n  mul\n  not\n  and\n  swap1\n  dup4\n  iszero\n  iszero\n  mul\n  or\n  swap1\n  sstore\n  pop\n    /* \"contracts/6.sol\":104:108  -128 */\n  0xffffffffffffffffffffffffffffffffffffffffffffffffffffffffffffff80\n    /* \"contracts/6.sol\":91:108  int8 myInt = -128 */\n  0x0\n  exp(0x100, 0x1)\n  dup2\n  sload\n  dup2\n  0xff\n  mul\n  not\n  and\n  swap1\n  dup4\n  0x0\n  signextend\n  0xff\n  and\n  mul\n  or\n  swap1\n  sstore\n  pop\n    /* \"contracts/6.sol\":130:133  255 */\n  0xff\n    /* \"contracts/6.sol\":115:133  uint8 myUInt = 255 */\n  0x0\n  exp(0x100, 0x2)\n  dup2\n  sload\n  dup2\n  0xff\n  mul\n  not\n  and\n  swap1\n  dup4\n  0xff\n  and\n  mul\n  or\n  swap1\n  sstore\n  pop\n    /* \"contracts/6.sol\":400:410  Action.ADD */\n  0x0\n    /* \"contracts/6.sol\":382:410  Action myAction = Action.ADD */\n  0x5\n  exp(0x100, 0x0)\n  dup2\n  sload\n  dup2\n  0xff\n  mul\n  not\n  and\n  swap1\n  dup4\n  0x2\n  dup2\n  gt\n  iszero\n  tag_1\n  jumpi\n  invalid\ntag_1:\n  mul\n  or\n  swap1\n  sstore\n  pop\n    /* \"contracts/6.sol\":599:624  uint[] myIntArr = [1,2,3] */\n  0x60\n  mload(0x40)\n  swap1\n  dup2\n  add\n  0x40\n  mstore\n  dup1\n    /* \"contracts/6.sol\":618:619  1 */\n  0x1\n    /* \"contracts/6.sol\":599:624  uint[] myIntArr = [1,2,3] */\n  0xff\n  and\n  dup2\n  mstore\n  0x20\n  add\n    /* \"contracts/6.sol\":620:621  2 */\n  0x2\n    /* \"contracts/6.sol\":599:624  uint[] myIntArr = [1,2,3] */\n  0xff\n  and\n  dup2\n  mstore\n  0x20\n  add\n    /* \"contracts/6.sol\":622:623  3 */\n  0x3\n    /* \"contracts/6.sol\":599:624  uint[] myIntArr = [1,2,3] */\n  0xff\n  and\n  dup2\n  mstore\n  pop\n  0x6\n  swap1\n  0x3\n  tag_2\n  swap3\n  swap2\n  swap1\n  jump\t// in(tag_3)\ntag_2:\n  pop\n    /* \"contracts/6.sol\":27:1245  contract DataTypes {\r... */\n  callvalue\n    /* \"--CODEGEN--\":8:17   */\n  dup1\n    /* \"--CODEGEN--\":5:7   */\n  iszero\n  tag_4\n  jumpi\n    /* \"--CODEGEN--\":30:31   */\n  0x0\n    /* \"--CODEGEN--\":27:28   */\n  dup1\n    /* \"--CODEGEN--\":20:32   */\n  revert\n    /* \"--CODEGEN--\":5:7   */\ntag_4:\n    /* \"contracts/6.sol\":27:1245  contract DataTypes {\r... */\n  pop\n  jump(tag_5)\ntag_3:\n  dup3\n  dup1\n  sload\n  dup3\n  dup3\n  sstore\n  swap1\n  0x0\n  mstore\n  keccak256(0x0, 0x20)\n  swap1\n  dup2\n  add\n  swap3\n  dup3\n  iszero\n  tag_6\n  jumpi\n  swap2\n  0x20\n  mul\n  dup3\n  add\ntag_7:\n  dup3\n  dup2\n  gt\n  iszero\n  tag_8\n  jumpi\n  dup3\n  mload\n  dup3\n  swap1\n  0xff\n  and\n  swap1\n  sstore\n  swap2\n  0x20\n  add\n  swap2\n  swap1\n  0x1\n  add\n  swap1\n  jump(tag_7)\ntag_8:\ntag_6:\n  pop\n  swap1\n  pop\n  tag_9\n  swap2\n  swap1\n  jump\t// in(tag_10)\ntag_9:\n  pop\n  swap1\n  jump\t// out\ntag_10:\n  tag_11\n  swap2\n  swap1\ntag_12:\n  dup1\n  dup3\n  gt\n  iszero\n  tag_13\n  jumpi\n  0x0\n  dup2\n  0x0\n  swap1\n  sstore\n  pop\n  0x1\n  add\n  jump(tag_12)\ntag_13:\n  pop\n  swap1\n  jump\ntag_11:\n  swap1\n  jump\t// out\ntag_5:\n  dataSize(sub_0)\n  dup1\n  dataOffset(sub_0)\n  0x0\n  codecopy\n  0x0\n  return\nstop\n\nsub_0: assembly {\n        /* \"contracts/6.sol\":27:1245  contract DataTypes {\r... */\n      mstore(0x40, 0x80)\n      jumpi(tag_1, lt(calldatasize, 0x4))\n      calldataload(0x0)\n      0x100000000000000000000000000000000000000000000000000000000\n      swap1\n      div\n      0xffffffff\n      and\n      dup1\n      0x12065fe0\n      eq\n      tag_2\n      jumpi\n      dup1\n      0x20824911\n      eq\n      tag_3\n      jumpi\n      dup1\n      0xabb91d18\n      eq\n      tag_4\n      jumpi\n      dup1\n      0xcbd33d05\n      eq\n      tag_5\n      jumpi\n    tag_1:\n        /* \"contracts/6.sol\":1109:1118  msg.value */\n      callvalue\n        /* \"contracts/6.sol\":1076:1085  _accounts */\n      0x13\n        /* \"contracts/6.sol\":1076:1097  _accounts[msg.sender] */\n      0x0\n        /* \"contracts/6.sol\":1086:1096  msg.sender */\n      caller\n        /* \"contracts/6.sol\":1076:1097  _accounts[msg.sender] */\n      0xffffffffffffffffffffffffffffffffffffffff\n      and\n      0xffffffffffffffffffffffffffffffffffffffff\n      and\n      dup2\n      mstore\n      0x20\n      add\n      swap1\n      dup2\n      mstore\n      0x20\n      add\n      0x0\n      keccak256\n        /* \"contracts/6.sol\":1076:1105  _accounts[msg.sender].balance */\n      0x0\n      add\n      0x0\n        /* \"contracts/6.sol\":1076:1118  _accounts[msg.sender].balance += msg.value */\n      dup3\n      dup3\n      sload\n      add\n      swap3\n      pop\n      pop\n      dup2\n      swap1\n      sstore\n      pop\n        /* \"contracts/6.sol\":27:1245  contract DataTypes {\r... */\n      stop\n        /* \"contracts/6.sol\":1138:1242  function getBalance() public view returns (uint) {\r... */\n    tag_2:\n      callvalue\n        /* \"--CODEGEN--\":8:17   */\n      dup1\n        /* \"--CODEGEN--\":5:7   */\n      iszero\n      tag_8\n      jumpi\n        /* \"--CODEGEN--\":30:31   */\n      0x0\n        /* \"--CODEGEN--\":27:28   */\n      dup1\n        /* \"--CODEGEN--\":20:32   */\n      revert\n        /* \"--CODEGEN--\":5:7   */\n    tag_8:\n        /* \"contracts/6.sol\":1138:1242  function getBalance() public view returns (uint) {\r... */\n      pop\n      tag_9\n      jump(tag_10)\n    tag_9:\n      mload(0x40)\n      dup1\n      dup3\n      dup2\n      mstore\n      0x20\n      add\n      swap2\n      pop\n      pop\n      mload(0x40)\n      dup1\n      swap2\n      sub\n      swap1\n      return\n        /* \"contracts/6.sol\":904:975  function structFunc() public {\r... */\n    tag_3:\n      callvalue\n        /* \"--CODEGEN--\":8:17   */\n      dup1\n        /* \"--CODEGEN--\":5:7   */\n      iszero\n      tag_11\n      jumpi\n        /* \"--CODEGEN--\":30:31   */\n      0x0\n        /* \"--CODEGEN--\":27:28   */\n      dup1\n        /* \"--CODEGEN--\":20:32   */\n      revert\n        /* \"--CODEGEN--\":5:7   */\n    tag_11:\n        /* \"contracts/6.sol\":904:975  function structFunc() public {\r... */\n      pop\n      tag_12\n      jump(tag_13)\n    tag_12:\n      stop\n        /* \"contracts/6.sol\":637:746  function arrFunc() public {\r... */\n    tag_4:\n      callvalue\n        /* \"--CODEGEN--\":8:17   */\n      dup1\n        /* \"--CODEGEN--\":5:7   */\n      iszero\n      tag_14\n      jumpi\n        /* \"--CODEGEN--\":30:31   */\n      0x0\n        /* \"--CODEGEN--\":27:28   */\n      dup1\n        /* \"--CODEGEN--\":20:32   */\n      revert\n        /* \"--CODEGEN--\":5:7   */\n    tag_14:\n        /* \"contracts/6.sol\":637:746  function arrFunc() public {\r... */\n      pop\n      tag_15\n      jump(tag_16)\n    tag_15:\n      stop\n        /* \"contracts/6.sol\":453:587  function assignAddress() public {\r... */\n    tag_5:\n      callvalue\n        /* \"--CODEGEN--\":8:17   */\n      dup1\n        /* \"--CODEGEN--\":5:7   */\n      iszero\n      tag_17\n      jumpi\n        /* \"--CODEGEN--\":30:31   */\n      0x0\n        /* \"--CODEGEN--\":27:28   */\n      dup1\n        /* \"--CODEGEN--\":20:32   */\n      revert\n        /* \"--CODEGEN--\":5:7   */\n    tag_17:\n        /* \"contracts/6.sol\":453:587  function assignAddress() public {\r... */\n      pop\n      tag_18\n      jump(tag_19)\n    tag_18:\n      stop\n        /* \"contracts/6.sol\":1138:1242  function getBalance() public view returns (uint) {\r... */\n    tag_10:\n        /* \"contracts/6.sol\":1181:1185  uint */\n      0x0\n        /* \"contracts/6.sol\":1205:1214  _accounts */\n      0x13\n        /* \"contracts/6.sol\":1205:1226  _accounts[msg.sender] */\n      0x0\n        /* \"contracts/6.sol\":1215:1225  msg.sender */\n      caller\n        /* \"contracts/6.sol\":1205:1226  _accounts[msg.sender] */\n      0xffffffffffffffffffffffffffffffffffffffff\n      and\n      0xffffffffffffffffffffffffffffffffffffffff\n      and\n      dup2\n      mstore\n      0x20\n      add\n      swap1\n      dup2\n      mstore\n      0x20\n      add\n      0x0\n      keccak256\n        /* \"contracts/6.sol\":1205:1234  _accounts[msg.sender].balance */\n      0x0\n      add\n      sload\n        /* \"contracts/6.sol\":1198:1234  return _accounts[msg.sender].balance */\n      swap1\n      pop\n        /* \"contracts/6.sol\":1138:1242  function getBalance() public view returns (uint) {\r... */\n      swap1\n      jump\t// out\n        /* \"contracts/6.sol\":904:975  function structFunc() public {\r... */\n    tag_13:\n        /* \"contracts/6.sol\":964:967  100 */\n      0x64\n        /* \"contracts/6.sol\":944:953  myAccount */\n      0x11\n        /* \"contracts/6.sol\":944:961  myAccount.balance */\n      0x0\n      add\n        /* \"contracts/6.sol\":944:967  myAccount.balance = 100 */\n      dup2\n      swap1\n      sstore\n      pop\n        /* \"contracts/6.sol\":904:975  function structFunc() public {\r... */\n      jump\t// out\n        /* \"contracts/6.sol\":637:746  function arrFunc() public {\r... */\n    tag_16:\n        /* \"contracts/6.sol\":674:682  myIntArr */\n      0x6\n        /* \"contracts/6.sol\":688:689  1 */\n      0x1\n        /* \"contracts/6.sol\":674:690  myIntArr.push(1) */\n      swap1\n      dup1\n        /* \"--CODEGEN--\":39:40   */\n      0x1\n        /* \"--CODEGEN--\":33:36   */\n      dup2\n        /* \"--CODEGEN--\":27:37   */\n      sload\n        /* \"--CODEGEN--\":23:41   */\n      add\n        /* \"--CODEGEN--\":57:67   */\n      dup1\n        /* \"--CODEGEN--\":52:55   */\n      dup3\n        /* \"--CODEGEN--\":45:68   */\n      sstore\n        /* \"--CODEGEN--\":79:89   */\n      dup1\n        /* \"--CODEGEN--\":72:89   */\n      swap2\n      pop\n        /* \"--CODEGEN--\":0:93   */\n      pop\n        /* \"contracts/6.sol\":674:690  myIntArr.push(1) */\n      swap1\n      0x1\n      dup3\n      sub\n      swap1\n      0x0\n      mstore\n      keccak256(0x0, 0x20)\n      add\n      0x0\n      swap1\n      swap2\n      swap3\n      swap1\n      swap2\n      swap1\n      swap2\n      pop\n      sstore\n      pop\n        /* \"contracts/6.sol\":701:709  myIntArr */\n      0x6\n        /* \"contracts/6.sol\":701:716  myIntArr.length */\n      dup1\n      sload\n      swap1\n      pop\n      pop\n        /* \"contracts/6.sol\":727:735  myIntArr */\n      0x6\n        /* \"contracts/6.sol\":736:737  0 */\n      0x0\n        /* \"contracts/6.sol\":727:738  myIntArr[0] */\n      dup2\n      sload\n      dup2\n      lt\n      iszero\n      iszero\n      tag_24\n      jumpi\n      invalid\n    tag_24:\n      swap1\n      0x0\n      mstore\n      pop(keccak256(0x0, 0x20))\n      pop\n        /* \"contracts/6.sol\":637:746  function arrFunc() public {\r... */\n      jump\t// out\n        /* \"contracts/6.sol\":453:587  function assignAddress() public {\r... */\n    tag_19:\n        /* \"contracts/6.sol\":508:518  msg.sender */\n      caller\n        /* \"contracts/6.sol\":496:505  myAddress */\n      0x5\n      0x1\n        /* \"contracts/6.sol\":496:518  myAddress = msg.sender */\n      0x100\n      exp\n      dup2\n      sload\n      dup2\n      0xffffffffffffffffffffffffffffffffffffffff\n      mul\n      not\n      and\n      swap1\n      dup4\n      0xffffffffffffffffffffffffffffffffffffffff\n      and\n      mul\n      or\n      swap1\n      sstore\n      pop\n        /* \"contracts/6.sol\":529:538  myAddress */\n      0x5\n      0x1\n      swap1\n      sload\n      swap1\n      0x100\n      exp\n      swap1\n      pop\n      pop\n        /* \"contracts/6.sol\":557:566  myAddress */\n      0x5\n      0x1\n      swap1\n      sload\n      swap1\n      0x100\n      exp\n      swap1\n      div\n      0xffffffffffffffffffffffffffffffffffffffff\n      and\n        /* \"contracts/6.sol\":557:575  myAddress.transfer */\n      0xffffffffffffffffffffffffffffffffffffffff\n      and\n        /* \"contracts/6.sol\":557:579  myAddress.transfer(10) */\n      0x8fc\n        /* \"contracts/6.sol\":576:578  10 */\n      0xa\n        /* \"contracts/6.sol\":557:579  myAddress.transfer(10) */\n      swap1\n      dup2\n      iszero\n      mul\n      swap1\n      mload(0x40)\n      0x0\n      mload(0x40)\n      dup1\n      dup4\n      sub\n      dup2\n      dup6\n      dup9\n      dup9\n      call\n      swap4\n      pop\n      pop\n      pop\n      pop\n      iszero\n        /* \"--CODEGEN--\":8:17   */\n      dup1\n        /* \"--CODEGEN--\":5:7   */\n      iszero\n      tag_27\n      jumpi\n        /* \"--CODEGEN--\":45:61   */\n      returndatasize\n        /* \"--CODEGEN--\":42:43   */\n      0x0\n        /* \"--CODEGEN--\":39:40   */\n      dup1\n        /* \"--CODEGEN--\":24:62   */\n      returndatacopy\n        /* \"--CODEGEN--\":77:93   */\n      returndatasize\n        /* \"--CODEGEN--\":74:75   */\n      0x0\n        /* \"--CODEGEN--\":67:94   */\n      revert\n        /* \"--CODEGEN--\":5:7   */\n    tag_27:\n        /* \"contracts/6.sol\":557:579  myAddress.transfer(10) */\n      pop\n        /* \"contracts/6.sol\":453:587  function assignAddress() public {\r... */\n      jump\t// out\n\n    auxdata: 0xa165627a7a723058204edd574de49ffa4e1de8773db14b23d6a42c7da404ff11a590e7de46031547a90029\n}\n",
				"bytecode": {
					"linkReferences": {},
					"object": "608060405260008060006101000a81548160ff0219169083151502179055507fffffffffffffffffffffffffffffffffffffffffffffffffffffffffffffff80600060016101000a81548160ff021916908360000b60ff16021790555060ff600060026101000a81548160ff021916908360ff1602179055506000600560006101000a81548160ff0219169083600281111561009757fe5b0217905550606060405190810160405280600160ff168152602001600260ff168152602001600360ff1681525060069060036100d49291906100e7565b503480156100e157600080fd5b5061015e565b828054828255906000526020600020908101928215610128579160200282015b82811115610127578251829060ff16905591602001919060010190610107565b5b5090506101359190610139565b5090565b61015b91905b8082111561015757600081600090555060010161013f565b5090565b90565b6102b38061016d6000396000f300608060405260043610610062576000357c0100000000000000000000000000000000000000000000000000000000900463ffffffff16806312065fe0146100b457806320824911146100df578063abb91d18146100f6578063cbd33d051461010d575b34601360003373ffffffffffffffffffffffffffffffffffffffff1673ffffffffffffffffffffffffffffffffffffffff16815260200190815260200160002060000160008282540192505081905550005b3480156100c057600080fd5b506100c9610124565b6040518082815260200191505060405180910390f35b3480156100eb57600080fd5b506100f461016e565b005b34801561010257600080fd5b5061010b61017b565b005b34801561011957600080fd5b506101226101cc565b005b6000601360003373ffffffffffffffffffffffffffffffffffffffff1673ffffffffffffffffffffffffffffffffffffffff16815260200190815260200160002060000154905090565b6064601160000181905550565b60066001908060018154018082558091505090600182039060005260206000200160009091929091909150555060068054905050600660008154811015156101bf57fe5b9060005260206000205050565b33600560016101000a81548173ffffffffffffffffffffffffffffffffffffffff021916908373ffffffffffffffffffffffffffffffffffffffff160217905550600560019054906101000a905050600560019054906101000a900473ffffffffffffffffffffffffffffffffffffffff1673ffffffffffffffffffffffffffffffffffffffff166108fc600a9081150290604051600060405180830381858888f19350505050158015610284573d6000803e3d6000fd5b505600a165627a7a723058204edd574de49ffa4e1de8773db14b23d6a42c7da404ff11a590e7de46031547a90029",
					"opcodes": "PUSH1 0x80 PUSH1 0x40 MSTORE PUSH1 0x0 DUP1 PUSH1 0x0 PUSH2 0x100 EXP DUP2 SLOAD DUP2 PUSH1 0xFF MUL NOT AND SWAP1 DUP4 ISZERO ISZERO MUL OR SWAP1 SSTORE POP PUSH32 0xFFFFFFFFFFFFFFFFFFFFFFFFFFFFFFFFFFFFFFFFFFFFFFFFFFFFFFFFFFFFFF80 PUSH1 0x0 PUSH1 0x1 PUSH2 0x100 EXP DUP2 SLOAD DUP2 PUSH1 0xFF MUL NOT AND SWAP1 DUP4 PUSH1 0x0 SIGNEXTEND PUSH1 0xFF AND MUL OR SWAP1 SSTORE POP PUSH1 0xFF PUSH1 0x0 PUSH1 0x2 PUSH2 0x100 EXP DUP2 SLOAD DUP2 PUSH1 0xFF MUL NOT AND SWAP1 DUP4 PUSH1 0xFF AND MUL OR SWAP1 SSTORE POP PUSH1 0x0 PUSH1 0x5 PUSH1 0x0 PUSH2 0x100 EXP DUP2 SLOAD DUP2 PUSH1 0xFF MUL NOT AND SWAP1 DUP4 PUSH1 0x2 DUP2 GT ISZERO PUSH2 0x97 JUMPI INVALID JUMPDEST MUL OR SWAP1 SSTORE POP PUSH1 0x60 PUSH1 0x40 MLOAD SWAP1 DUP2 ADD PUSH1 0x40 MSTORE DUP1 PUSH1 0x1 PUSH1 0xFF AND DUP2 MSTORE PUSH1 0x20 ADD PUSH1 0x2 PUSH1 0xFF AND DUP2 MSTORE PUSH1 0x20 ADD PUSH1 0x3 PUSH1 0xFF AND DUP2 MSTORE POP PUSH1 0x6 SWAP1 PUSH1 0x3 PUSH2 0xD4 SWAP3 SWAP2 SWAP1 PUSH2 0xE7 JUMP JUMPDEST POP CALLVALUE DUP1 ISZERO PUSH2 0xE1 JUMPI PUSH1 0x0 DUP1 REVERT JUMPDEST POP PUSH2 0x15E JUMP JUMPDEST DUP3 DUP1 SLOAD DUP3 DUP3 SSTORE SWAP1 PUSH1 0x0 MSTORE PUSH1 0x20 PUSH1 0x0 KECCAK256 SWAP1 DUP2 ADD SWAP3 DUP3 ISZERO PUSH2 0x128 JUMPI SWAP2 PUSH1 0x20 MUL DUP3 ADD JUMPDEST DUP3 DUP2 GT ISZERO PUSH2 0x127 JUMPI DUP3 MLOAD DUP3 SWAP1 PUSH1 0xFF AND SWAP1 SSTORE SWAP2 PUSH1 0x20 ADD SWAP2 SWAP1 PUSH1 0x1 ADD SWAP1 PUSH2 0x107 JUMP JUMPDEST JUMPDEST POP SWAP1 POP PUSH2 0x135 SWAP2 SWAP1 PUSH2 0x139 JUMP JUMPDEST POP SWAP1 JUMP JUMPDEST PUSH2 0x15B SWAP2 SWAP1 JUMPDEST DUP1 DUP3 GT ISZERO PUSH2 0x157 JUMPI PUSH1 0x0 DUP2 PUSH1 0x0 SWAP1 SSTORE POP PUSH1 0x1 ADD PUSH2 0x13F JUMP JUMPDEST POP SWAP1 JUMP JUMPDEST SWAP1 JUMP JUMPDEST PUSH2 0x2B3 DUP1 PUSH2 0x16D PUSH1 0x0 CODECOPY PUSH1 0x0 RETURN STOP PUSH1 0x80 PUSH1 0x40 MSTORE PUSH1 0x4 CALLDATASIZE LT PUSH2 0x62 JUMPI PUSH1 0x0 CALLDATALOAD PUSH29 0x100000000000000000000000000000000000000000000000000000000 SWAP1 DIV PUSH4 0xFFFFFFFF AND DUP1 PUSH4 0x12065FE0 EQ PUSH2 0xB4 JUMPI DUP1 PUSH4 0x20824911 EQ PUSH2 0xDF JUMPI DUP1 PUSH4 0xABB91D18 EQ PUSH2 0xF6 JUMPI DUP1 PUSH4 0xCBD33D05 EQ PUSH2 0x10D JUMPI JUMPDEST CALLVALUE PUSH1 0x13 PUSH1 0x0 CALLER PUSH20 0xFFFFFFFFFFFFFFFFFFFFFFFFFFFFFFFFFFFFFFFF AND PUSH20 0xFFFFFFFFFFFFFFFFFFFFFFFFFFFFFFFFFFFFFFFF AND DUP2 MSTORE PUSH1 0x20 ADD SWAP1 DUP2 MSTORE PUSH1 0x20 ADD PUSH1 0x0 KECCAK256 PUSH1 0x0 ADD PUSH1 0x0 DUP3 DUP3 SLOAD ADD SWAP3 POP POP DUP2 SWAP1 SSTORE POP STOP JUMPDEST CALLVALUE DUP1 ISZERO PUSH2 0xC0 JUMPI PUSH1 0x0 DUP1 REVERT JUMPDEST POP PUSH2 0xC9 PUSH2 0x124 JUMP JUMPDEST PUSH1 0x40 MLOAD DUP1 DUP3 DUP2 MSTORE PUSH1 0x20 ADD SWAP2 POP POP PUSH1 0x40 MLOAD DUP1 SWAP2 SUB SWAP1 RETURN JUMPDEST CALLVALUE DUP1 ISZERO PUSH2 0xEB JUMPI PUSH1 0x0 DUP1 REVERT JUMPDEST POP PUSH2 0xF4 PUSH2 0x16E JUMP JUMPDEST STOP JUMPDEST CALLVALUE DUP1 ISZERO PUSH2 0x102 JUMPI PUSH1 0x0 DUP1 REVERT JUMPDEST POP PUSH2 0x10B PUSH2 0x17B JUMP JUMPDEST STOP JUMPDEST CALLVALUE DUP1 ISZERO PUSH2 0x119 JUMPI PUSH1 0x0 DUP1 REVERT JUMPDEST POP PUSH2 0x122 PUSH2 0x1CC JUMP JUMPDEST STOP JUMPDEST PUSH1 0x0 PUSH1 0x13 PUSH1 0x0 CALLER PUSH20 0xFFFFFFFFFFFFFFFFFFFFFFFFFFFFFFFFFFFFFFFF AND PUSH20 0xFFFFFFFFFFFFFFFFFFFFFFFFFFFFFFFFFFFFFFFF AND DUP2 MSTORE PUSH1 0x20 ADD SWAP1 DUP2 MSTORE PUSH1 0x20 ADD PUSH1 0x0 KECCAK256 PUSH1 0x0 ADD SLOAD SWAP1 POP SWAP1 JUMP JUMPDEST PUSH1 0x64 PUSH1 0x11 PUSH1 0x0 ADD DUP2 SWAP1 SSTORE POP JUMP JUMPDEST PUSH1 0x6 PUSH1 0x1 SWAP1 DUP1 PUSH1 0x1 DUP2 SLOAD ADD DUP1 DUP3 SSTORE DUP1 SWAP2 POP POP SWAP1 PUSH1 0x1 DUP3 SUB SWAP1 PUSH1 0x0 MSTORE PUSH1 0x20 PUSH1 0x0 KECCAK256 ADD PUSH1 0x0 SWAP1 SWAP2 SWAP3 SWAP1 SWAP2 SWAP1 SWAP2 POP SSTORE POP PUSH1 0x6 DUP1 SLOAD SWAP1 POP POP PUSH1 0x6 PUSH1 0x0 DUP2 SLOAD DUP2 LT ISZERO ISZERO PUSH2 0x1BF JUMPI INVALID JUMPDEST SWAP1 PUSH1 0x0 MSTORE PUSH1 0x20 PUSH1 0x0 KECCAK256 POP POP JUMP JUMPDEST CALLER PUSH1 0x5 PUSH1 0x1 PUSH2 0x100 EXP DUP2 SLOAD DUP2 PUSH20 0xFFFFFFFFFFFFFFFFFFFFFFFFFFFFFFFFFFFFFFFF MUL NOT AND SWAP1 DUP4 PUSH20 0xFFFFFFFFFFFFFFFFFFFFFFFFFFFFFFFFFFFFFFFF AND MUL OR SWAP1 SSTORE POP PUSH1 0x5 PUSH1 0x1 SWAP1 SLOAD SWAP1 PUSH2 0x100 EXP SWAP1 POP POP PUSH1 0x5 PUSH1 0x1 SWAP1 SLOAD SWAP1 PUSH2 0x100 EXP SWAP1 DIV PUSH20 0xFFFFFFFFFFFFFFFFFFFFFFFFFFFFFFFFFFFFFFFF AND PUSH20 0xFFFFFFFFFFFFFFFFFFFFFFFFFFFFFFFFFFFFFFFF AND PUSH2 0x8FC PUSH1 0xA SWAP1 DUP2 ISZERO MUL SWAP1 PUSH1 0x40 MLOAD PUSH1 0x0 PUSH1 0x40 MLOAD DUP1 DUP4 SUB DUP2 DUP6 DUP9 DUP9 CALL SWAP4 POP POP POP POP ISZERO DUP1 ISZERO PUSH2 0x284 JUMPI RETURNDATASIZE PUSH1 0x0 DUP1 RETURNDATACOPY RETURNDATASIZE PUSH1 0x0 REVERT JUMPDEST POP JUMP STOP LOG1 PUSH6 0x627A7A723058 KECCAK256 0x4e 0xdd JUMPI 0x4d 0xe4 SWAP16 STATICCALL 0x4e SAR 0xe8 PUSH24 0x3DB14B23D6A42C7DA404FF11A590E7DE46031547A9002900 "
				},
				"gasEstimates": {
					"creation": {
						"codeDepositCost": "138200",
						"executionCost": "infinite",
						"totalCost": "infinite"
					},
					"external": {
						"": "20478",
						"arrFunc()": "41011",
						"assignAddress()": "infinite",
						"getBalance()": "497",
						"structFunc()": "20175"
					}
				},
				"methodIdentifiers": {
					"arrFunc()": "abb91d18",
					"assignAddress()": "cbd33d05",
					"getBalance()": "12065fe0",
					"structFunc()": "20824911"
				}
			},
			"userdoc": {
				"methods": {}
			}
		}
	}
}