{
	"data": {
		"bytecode": {
			"linkReferences": {},
			"object": "608060405234801561001057600080fd5b5061019e806100206000396000f300608060405260043610610057576000357c0100000000000000000000000000000000000000000000000000000000900463ffffffff1680634386cca51461005c57806371ca2ecf14610073578063c3e2b5e61461008a575b600080fd5b34801561006857600080fd5b506100716100a1565b005b34801561007f57600080fd5b5061008861010e565b005b34801561009657600080fd5b5061009f610128565b005b600060029080600181540180825580915050906001820390600052602060002001600090919290919091505550600060039080600181540180825580915050906001820390600052602060002001600090919290919091505550600460008054905014151561010c57fe5b565b6000806001915060029050808214151561012457fe5b5050565b60606040805190810160405280600481526020017f74657374000000000000000000000000000000000000000000000000000000008152509050600a815114151561016f57fe5b505600a165627a7a72305820c6fc3ef57c41bfd644b8d6ea86e5bd897459cdee8dc0b78d9cc7f66cabbfdf720029",
			"opcodes": "PUSH1 0x80 PUSH1 0x40 MSTORE CALLVALUE DUP1 ISZERO PUSH2 0x10 JUMPI PUSH1 0x0 DUP1 REVERT JUMPDEST POP PUSH2 0x19E DUP1 PUSH2 0x20 PUSH1 0x0 CODECOPY PUSH1 0x0 RETURN STOP PUSH1 0x80 PUSH1 0x40 MSTORE PUSH1 0x4 CALLDATASIZE LT PUSH2 0x57 JUMPI PUSH1 0x0 CALLDATALOAD PUSH29 0x100000000000000000000000000000000000000000000000000000000 SWAP1 DIV PUSH4 0xFFFFFFFF AND DUP1 PUSH4 0x4386CCA5 EQ PUSH2 0x5C JUMPI DUP1 PUSH4 0x71CA2ECF EQ PUSH2 0x73 JUMPI DUP1 PUSH4 0xC3E2B5E6 EQ PUSH2 0x8A JUMPI JUMPDEST PUSH1 0x0 DUP1 REVERT JUMPDEST CALLVALUE DUP1 ISZERO PUSH2 0x68 JUMPI PUSH1 0x0 DUP1 REVERT JUMPDEST POP PUSH2 0x71 PUSH2 0xA1 JUMP JUMPDEST STOP JUMPDEST CALLVALUE DUP1 ISZERO PUSH2 0x7F JUMPI PUSH1 0x0 DUP1 REVERT JUMPDEST POP PUSH2 0x88 PUSH2 0x10E JUMP JUMPDEST STOP JUMPDEST CALLVALUE DUP1 ISZERO PUSH2 0x96 JUMPI PUSH1 0x0 DUP1 REVERT JUMPDEST POP PUSH2 0x9F PUSH2 0x128 JUMP JUMPDEST STOP JUMPDEST PUSH1 0x0 PUSH1 0x2 SWAP1 DUP1 PUSH1 0x1 DUP2 SLOAD ADD DUP1 DUP3 SSTORE DUP1 SWAP2 POP POP SWAP1 PUSH1 0x1 DUP3 SUB SWAP1 PUSH1 0x0 MSTORE PUSH1 0x20 PUSH1 0x0 KECCAK256 ADD PUSH1 0x0 SWAP1 SWAP2 SWAP3 SWAP1 SWAP2 SWAP1 SWAP2 POP SSTORE POP PUSH1 0x0 PUSH1 0x3 SWAP1 DUP1 PUSH1 0x1 DUP2 SLOAD ADD DUP1 DUP3 SSTORE DUP1 SWAP2 POP POP SWAP1 PUSH1 0x1 DUP3 SUB SWAP1 PUSH1 0x0 MSTORE PUSH1 0x20 PUSH1 0x0 KECCAK256 ADD PUSH1 0x0 SWAP1 SWAP2 SWAP3 SWAP1 SWAP2 SWAP1 SWAP2 POP SSTORE POP PUSH1 0x4 PUSH1 0x0 DUP1 SLOAD SWAP1 POP EQ ISZERO ISZERO PUSH2 0x10C JUMPI INVALID JUMPDEST JUMP JUMPDEST PUSH1 0x0 DUP1 PUSH1 0x1 SWAP2 POP PUSH1 0x2 SWAP1 POP DUP1 DUP3 EQ ISZERO ISZERO PUSH2 0x124 JUMPI INVALID JUMPDEST POP POP JUMP JUMPDEST PUSH1 0x60 PUSH1 0x40 DUP1 MLOAD SWAP1 DUP2 ADD PUSH1 0x40 MSTORE DUP1 PUSH1 0x4 DUP2 MSTORE PUSH1 0x20 ADD PUSH32 0x7465737400000000000000000000000000000000000000000000000000000000 DUP2 MSTORE POP SWAP1 POP PUSH1 0xA DUP2 MLOAD EQ ISZERO ISZERO PUSH2 0x16F JUMPI INVALID JUMPDEST POP JUMP STOP LOG1 PUSH6 0x627A7A723058 KECCAK256 0xc6 0xfc RETURNDATACOPY 0xf5 PUSH29 0x41BFD644B8D6EA86E5BD897459CDEE8DC0B78D9CC7F66CABBFDF720029 "
		},
		"gasEstimates": {
			"creation": {
				"codeDepositCost": "82800",
				"executionCost": "129",
				"totalCost": "82929"
			},
			"external": {
				"assignment()": "196",
				"memoryAlloc()": "269",
				"storageAlloc()": "81032"
			}
		},
		"methodIdentifiers": {
			"assignment()": "71ca2ecf",
			"memoryAlloc()": "c3e2b5e6",
			"storageAlloc()": "4386cca5"
		}
	},
	"abi": [
		{
			"constant": false,
			"inputs": [],
			"name": "storageAlloc",
			"outputs": [],
			"payable": false,
			"stateMutability": "nonpayable",
			"type": "function"
		},
		{
			"constant": true,
			"inputs": [],
			"name": "assignment",
			"outputs": [],
			"payable": false,
			"stateMutability": "view",
			"type": "function"
		},
		{
			"constant": true,
			"inputs": [],
			"name": "memoryAlloc",
			"outputs": [],
			"payable": false,
			"stateMutability": "view",
			"type": "function"
		}
	]
}