{
	"data": {
		"bytecode": {
			"linkReferences": {},
			"object": "6101c2610030600b82828239805160001a6073146000811461002057610022565bfe5b5030600052607381538281f3007300000000000000000000000000000000000000003014608060405260043610610079576000357c0100000000000000000000000000000000000000000000000000000000900463ffffffff1680633a9ebefd1461007e5780637669a640146100b25780637cf5dab0146100f0578063dccce74d14610124575b600080fd5b61009c60048036038101908080359060200190929190505050610162565b6040518082815260200191505060405180910390f35b6100da600480360381019080803590602001909291908035906020019092919050505061016f565b6040518082815260200191505060405180910390f35b61010e6004803603810190808035906020019092919050505061017c565b6040518082815260200191505060405180910390f35b61014c6004803603810190808035906020019092919080359060200190929190505050610189565b6040518082815260200191505060405180910390f35b6000600182039050919050565b6000818301905092915050565b6000600182019050919050565b60008183039050929150505600a165627a7a72305820b2052f9cbed5709312d182c04fa680ebe08fa69aebe9054cca713f119e9cbdf70029",
			"opcodes": "PUSH2 0x1C2 PUSH2 0x30 PUSH1 0xB DUP3 DUP3 DUP3 CODECOPY DUP1 MLOAD PUSH1 0x0 BYTE PUSH1 0x73 EQ PUSH1 0x0 DUP2 EQ PUSH2 0x20 JUMPI PUSH2 0x22 JUMP JUMPDEST INVALID JUMPDEST POP ADDRESS PUSH1 0x0 MSTORE PUSH1 0x73 DUP2 MSTORE8 DUP3 DUP2 RETURN STOP PUSH20 0x0 ADDRESS EQ PUSH1 0x80 PUSH1 0x40 MSTORE PUSH1 0x4 CALLDATASIZE LT PUSH2 0x79 JUMPI PUSH1 0x0 CALLDATALOAD PUSH29 0x100000000000000000000000000000000000000000000000000000000 SWAP1 DIV PUSH4 0xFFFFFFFF AND DUP1 PUSH4 0x3A9EBEFD EQ PUSH2 0x7E JUMPI DUP1 PUSH4 0x7669A640 EQ PUSH2 0xB2 JUMPI DUP1 PUSH4 0x7CF5DAB0 EQ PUSH2 0xF0 JUMPI DUP1 PUSH4 0xDCCCE74D EQ PUSH2 0x124 JUMPI JUMPDEST PUSH1 0x0 DUP1 REVERT JUMPDEST PUSH2 0x9C PUSH1 0x4 DUP1 CALLDATASIZE SUB DUP2 ADD SWAP1 DUP1 DUP1 CALLDATALOAD SWAP1 PUSH1 0x20 ADD SWAP1 SWAP3 SWAP2 SWAP1 POP POP POP PUSH2 0x162 JUMP JUMPDEST PUSH1 0x40 MLOAD DUP1 DUP3 DUP2 MSTORE PUSH1 0x20 ADD SWAP2 POP POP PUSH1 0x40 MLOAD DUP1 SWAP2 SUB SWAP1 RETURN JUMPDEST PUSH2 0xDA PUSH1 0x4 DUP1 CALLDATASIZE SUB DUP2 ADD SWAP1 DUP1 DUP1 CALLDATALOAD SWAP1 PUSH1 0x20 ADD SWAP1 SWAP3 SWAP2 SWAP1 DUP1 CALLDATALOAD SWAP1 PUSH1 0x20 ADD SWAP1 SWAP3 SWAP2 SWAP1 POP POP POP PUSH2 0x16F JUMP JUMPDEST PUSH1 0x40 MLOAD DUP1 DUP3 DUP2 MSTORE PUSH1 0x20 ADD SWAP2 POP POP PUSH1 0x40 MLOAD DUP1 SWAP2 SUB SWAP1 RETURN JUMPDEST PUSH2 0x10E PUSH1 0x4 DUP1 CALLDATASIZE SUB DUP2 ADD SWAP1 DUP1 DUP1 CALLDATALOAD SWAP1 PUSH1 0x20 ADD SWAP1 SWAP3 SWAP2 SWAP1 POP POP POP PUSH2 0x17C JUMP JUMPDEST PUSH1 0x40 MLOAD DUP1 DUP3 DUP2 MSTORE PUSH1 0x20 ADD SWAP2 POP POP PUSH1 0x40 MLOAD DUP1 SWAP2 SUB SWAP1 RETURN JUMPDEST PUSH2 0x14C PUSH1 0x4 DUP1 CALLDATASIZE SUB DUP2 ADD SWAP1 DUP1 DUP1 CALLDATALOAD SWAP1 PUSH1 0x20 ADD SWAP1 SWAP3 SWAP2 SWAP1 DUP1 CALLDATALOAD SWAP1 PUSH1 0x20 ADD SWAP1 SWAP3 SWAP2 SWAP1 POP POP POP PUSH2 0x189 JUMP JUMPDEST PUSH1 0x40 MLOAD DUP1 DUP3 DUP2 MSTORE PUSH1 0x20 ADD SWAP2 POP POP PUSH1 0x40 MLOAD DUP1 SWAP2 SUB SWAP1 RETURN JUMPDEST PUSH1 0x0 PUSH1 0x1 DUP3 SUB SWAP1 POP SWAP2 SWAP1 POP JUMP JUMPDEST PUSH1 0x0 DUP2 DUP4 ADD SWAP1 POP SWAP3 SWAP2 POP POP JUMP JUMPDEST PUSH1 0x0 PUSH1 0x1 DUP3 ADD SWAP1 POP SWAP2 SWAP1 POP JUMP JUMPDEST PUSH1 0x0 DUP2 DUP4 SUB SWAP1 POP SWAP3 SWAP2 POP POP JUMP STOP LOG1 PUSH6 0x627A7A723058 KECCAK256 0xb2 SDIV 0x2f SWAP13 0xbe 0xd5 PUSH17 0x9312D182C04FA680EBE08FA69AEBE9054C 0xca PUSH18 0x3F119E9CBDF7002900000000000000000000 "
		},
		"gasEstimates": {
			"creation": {
				"codeDepositCost": "90000",
				"executionCost": "188",
				"totalCost": "90188"
			},
			"external": {
				"decrement(uint256)": "253",
				"decrementByValue(uint256,uint256)": "348",
				"increment(uint256)": "297",
				"incrementByValue(uint256,uint256)": "304"
			}
		},
		"methodIdentifiers": {
			"decrement(uint256)": "3a9ebefd",
			"decrementByValue(uint256,uint256)": "dccce74d",
			"increment(uint256)": "7cf5dab0",
			"incrementByValue(uint256,uint256)": "7669a640"
		}
	},
	"abi": [
		{
			"constant": true,
			"inputs": [
				{
					"name": "_self",
					"type": "uint256"
				}
			],
			"name": "decrement",
			"outputs": [
				{
					"name": "",
					"type": "uint256"
				}
			],
			"payable": false,
			"stateMutability": "view",
			"type": "function"
		},
		{
			"constant": true,
			"inputs": [
				{
					"name": "_self",
					"type": "uint256"
				},
				{
					"name": "_value",
					"type": "uint256"
				}
			],
			"name": "incrementByValue",
			"outputs": [
				{
					"name": "",
					"type": "uint256"
				}
			],
			"payable": false,
			"stateMutability": "view",
			"type": "function"
		},
		{
			"constant": true,
			"inputs": [
				{
					"name": "_self",
					"type": "uint256"
				}
			],
			"name": "increment",
			"outputs": [
				{
					"name": "",
					"type": "uint256"
				}
			],
			"payable": false,
			"stateMutability": "view",
			"type": "function"
		},
		{
			"constant": true,
			"inputs": [
				{
					"name": "_self",
					"type": "uint256"
				},
				{
					"name": "_value",
					"type": "uint256"
				}
			],
			"name": "decrementByValue",
			"outputs": [
				{
					"name": "",
					"type": "uint256"
				}
			],
			"payable": false,
			"stateMutability": "view",
			"type": "function"
		}
	]
}