{
	"data": {
		"bytecode": {
			"linkReferences": {},
			"object": "608060405234801561001057600080fd5b50610107806100206000396000f300608060405260043610605d576000357c0100000000000000000000000000000000000000000000000000000000900463ffffffff1680632b813bc0146062578063357815c414607657806350bff6bf14608a578063a26388bb14609e575b600080fd5b348015606d57600080fd5b50607460b2565b005b348015608157600080fd5b50608860c0565b005b348015609557600080fd5b50609c60d1565b005b34801560a957600080fd5b5060b060d6565b005b6002600114151560be57fe5b565b6001600214151560cf57600080fd5b565b600080fd5b600080fd00a165627a7a723058202e8fbf8b5988fe02bd897ecf4137d93a2970f94fb06d06ca5dcbfaed9e0cc9090029",
			"opcodes": "PUSH1 0x80 PUSH1 0x40 MSTORE CALLVALUE DUP1 ISZERO PUSH2 0x10 JUMPI PUSH1 0x0 DUP1 REVERT JUMPDEST POP PUSH2 0x107 DUP1 PUSH2 0x20 PUSH1 0x0 CODECOPY PUSH1 0x0 RETURN STOP PUSH1 0x80 PUSH1 0x40 MSTORE PUSH1 0x4 CALLDATASIZE LT PUSH1 0x5D JUMPI PUSH1 0x0 CALLDATALOAD PUSH29 0x100000000000000000000000000000000000000000000000000000000 SWAP1 DIV PUSH4 0xFFFFFFFF AND DUP1 PUSH4 0x2B813BC0 EQ PUSH1 0x62 JUMPI DUP1 PUSH4 0x357815C4 EQ PUSH1 0x76 JUMPI DUP1 PUSH4 0x50BFF6BF EQ PUSH1 0x8A JUMPI DUP1 PUSH4 0xA26388BB EQ PUSH1 0x9E JUMPI JUMPDEST PUSH1 0x0 DUP1 REVERT JUMPDEST CALLVALUE DUP1 ISZERO PUSH1 0x6D JUMPI PUSH1 0x0 DUP1 REVERT JUMPDEST POP PUSH1 0x74 PUSH1 0xB2 JUMP JUMPDEST STOP JUMPDEST CALLVALUE DUP1 ISZERO PUSH1 0x81 JUMPI PUSH1 0x0 DUP1 REVERT JUMPDEST POP PUSH1 0x88 PUSH1 0xC0 JUMP JUMPDEST STOP JUMPDEST CALLVALUE DUP1 ISZERO PUSH1 0x95 JUMPI PUSH1 0x0 DUP1 REVERT JUMPDEST POP PUSH1 0x9C PUSH1 0xD1 JUMP JUMPDEST STOP JUMPDEST CALLVALUE DUP1 ISZERO PUSH1 0xA9 JUMPI PUSH1 0x0 DUP1 REVERT JUMPDEST POP PUSH1 0xB0 PUSH1 0xD6 JUMP JUMPDEST STOP JUMPDEST PUSH1 0x2 PUSH1 0x1 EQ ISZERO ISZERO PUSH1 0xBE JUMPI INVALID JUMPDEST JUMP JUMPDEST PUSH1 0x1 PUSH1 0x2 EQ ISZERO ISZERO PUSH1 0xCF JUMPI PUSH1 0x0 DUP1 REVERT JUMPDEST JUMP JUMPDEST PUSH1 0x0 DUP1 REVERT JUMPDEST PUSH1 0x0 DUP1 REVERT STOP LOG1 PUSH6 0x627A7A723058 KECCAK256 0x2e DUP16 0xbf DUP12 MSIZE DUP9 INVALID MUL 0xbd DUP10 PUSH31 0xCF4137D93A2970F94FB06D06CA5DCBFAED9E0CC90900290000000000000000 "
		},
		"gasEstimates": {
			"creation": {
				"codeDepositCost": "52600",
				"executionCost": "105",
				"totalCost": "52705"
			},
			"external": {
				"testAssert()": "152",
				"testRequire()": "180",
				"testRevert()": "196",
				"testThrow()": "174"
			}
		},
		"methodIdentifiers": {
			"testAssert()": "2b813bc0",
			"testRequire()": "357815c4",
			"testRevert()": "a26388bb",
			"testThrow()": "50bff6bf"
		}
	},
	"abi": [
		{
			"constant": true,
			"inputs": [],
			"name": "testAssert",
			"outputs": [],
			"payable": false,
			"stateMutability": "view",
			"type": "function"
		},
		{
			"constant": true,
			"inputs": [],
			"name": "testRequire",
			"outputs": [],
			"payable": false,
			"stateMutability": "view",
			"type": "function"
		},
		{
			"constant": true,
			"inputs": [],
			"name": "testThrow",
			"outputs": [],
			"payable": false,
			"stateMutability": "view",
			"type": "function"
		},
		{
			"constant": true,
			"inputs": [],
			"name": "testRevert",
			"outputs": [],
			"payable": false,
			"stateMutability": "view",
			"type": "function"
		}
	]
}